:400000000080002011000000C9010000C901000080B500AF47F2BC63C4F2000344F2FA62C4F2000212681A6000F0D2F810B5054C237833B9044810B10448AFF30080012154
:40004000217010BD2081FF1F000000008013000008B5064B1BB106480649AFF300800648016811B1054A02B1904708BD00000000801300002481FF1F0881FF1F0000000023
:4000800080B500AF01F0C6F800F07AFF00F01EFF00F060FF80BD00BF80B500AF01F02CF900F0CAFF024648F23C13C1F6FF731A6000F066FF80BD00BF80B500AF62B600F088
:4000C000ADFB40F28100C0F2000001F04FF801F03BF840F29900C0F2000001F0B9F801F0A5F800F05DFC4FF000004FF0000100F06DFC41F28430C0F2000000F0A3FC4FF062
:4001000000004FF0000100F061FC48F23C13C1F6FF731B684FEA53039BB2184600F0C0FE48F23C13C1F6FF731A6848F24013C1F6FF731B689A421AD948F23C13C1F6FF7327
:400140001A6848F24013C1F6FF731A604FF000004FF0080100F03AFC48F24013C1F6FF731B684FEA53039BB2184600F099FE48F23C13C1F6FF731A6848F20C13C1F6FF7370
:400180001B689A421AD248F23C13C1F6FF731A6848F20C13C1F6FF731A604FF001004FF0080100F013FC48F20C13C1F6FF731B684FEA53039BB2184600F072FE4FF06400FB
:4001C00000F08AFF9BE700BF80B400AFFEE700BF80B586B000AF40F20103C0F200037B6141F2D463C0F200033B6140F20103C0F200037B6141F2D463C0F200033B613BE085
:400200003B691B68FB603B695B68BB603B699B683B604FF000037B600FE0FB681A68BB681A60BB6803F10403BB60FB6803F10403FB607B6803F104037B607A683B689A42DE
:40024000EBD13B69DB683B604FF000037B600BE0BB684FF000021A60BB6803F10403BB607B6803F104037B607A683B689A42EFD13B6903F110033B617B69002B0CBF002303
:400280000123DBB27A6902F1FF327A61002BB7D101F03EF8FFF710FFFEE700BF80B582B000AF4EF60C53CEF200034FF48062C0F2FA521A604EF61453CEF200034EF61452F7
:4002C000CEF20002126842F400721A604FF000037B6019E07B68032B07D840F20003C0F200037A6853F8223003E040F2C913C0F2000348F20002C1F6FF72796842F82130BB
:400300007B6803F101037B607B682F2BE2D947F2BC63C4F200031B78DAB248F20413C1F6FF731A704EF60853CEF2000348F20002C1F6FF721A6000F061F948F20013C1F64D
:40034000FF734FF000021A6007F10807BD4680BD80B582B000AF7860396078684FF000013A6801F004F807F10807BD4680BD00BF80B584B000AFF860B9607A60F868B968E9
:400380007A6800F0EBFF07F11007BD4680BD00BF80B584B000AFF860B9607A60F868B9687A6800F0DBFF07F11007BD4680BD00BF80B483B000AF0346FB71FEE780B487B0BA
:4003C00000AF786039604FF000033B614FF000037B612CE07B694FEA83037A68D3181B68BB60BB68FB73BB6823F0FF03BB6017E03B694FEA43033A68D3181B781A46BB6826
:40040000D3183A694FEA420239688A1852781A703B6903F101033B61FB7B03F1FF33FB73FB7B002BE4D17B6903F101037B617B691A2BCFD907F11C07BD4680BC704700BF29
:4004400080B582B000AF4FF48143C4F200034FF000021A8044F28203C4F200034FF058021A7044F28403C4F200034FF01D021A8044F28603C4F200034FF019021A704FF427
:400480008643C4F200034FF002021A704FF040234FF008021A704FF48443C4F200034FF003021A7044F2A163C4F200034FF48472C4F600121278D2B21A7044F22223C4F226
:4004C00000034FF008021A8044F22023C4F2000341F251221A804FF00003FB704FF019037B6019E0FB784FEA4303DAB244F22523C4F200031B78DBB203F00103DBB2134319
:40050000DBB203F00303FB704FF4F07000F0B4FD7B6803F1FF337B607B68002B02D0FB78032BDFD17B68002B03D14FF00300FFF73FFF44F20403C4F200034FF480721A8054
:4005400044F20403C4F200034FF007021A7044F20603C4F200034FF000021A7044F20803C4F200034FF048021A7044F20403C4F200034FF000021A7044F20103C4F200032F
:400580004FF002021A7044F2A233C4F2000344F2A232C4F200021278D2B242F00302D2B21A7007F10807BD4680BD00BF80B483B000AF40F2CF13C4F600131B78FB7145F65E
:4005C0006E03C4F20003FA7902F00702D2B21A7045F66F03C4F20003FA794FEA1212D2B21A7045F67603C4F200034FF044021A7007F10C07BD4680BC704700BF80B582B06E
:4006000000AF72B644F2E863C4F2000344F2E862C4F200021278D2B242F00402D2B21A704FF00003FB7119E0FA7913464FEA43039B184FEA430341F28C32C0F200029B18A1
:400640003B603B681A683B689B889BB210461946FFF77EFEFB7903F10103FB71FB79072BE2D941F2BC30C0F2000041F22841C0F20001FFF7A3FE45F20303C4F2010345F262
:400680000302C4F201021278D2B242F00202D2B21A7045F21303C4F2010345F21302C4F201021278D2B242F00202D2B21A7044F2A033C4F2000344F2A032C4F200021278C0
:4006C000D2B242F04002D2B21A7044F2C233C4F2000344F2C232C4F200021278D2B242F01002D2B21A7045F20210C4F2000041F28861C0F200014FF00802FFF749FE45F243
:400700001210C4F2000041F29061C0F200014FF00802FFF73DFE45F22210C4F2000041F29861C0F200014FF00802FFF731FE44F22233C4F2000344F22232C4F20002127814
:40074000D2B242F00802D2B21A704FF49043C4F200034FF000021A70FFF772FE4FF49043C4F200034FF080021A704FF00403C4F208034FF001021A70FFF718FF44F2B0309B
:40078000C4F2000044F2A031C4F200014FF00E02FFF7EEFD07F10807BD4680BD80B582B000AF41F2873000F06BF841F2873000F083F800F083FC0346FB7146F29343C4F2BE
:4007C000000346F29342C4F200021278D2B242F01002D2B21A70FB79184600F073FC00F07BF84FF0010000F02FF807F10807BD4680BD00BF80B400AF46F27143C4F2000358
:4008000046F27142C4F200021278D2B262F07F02D2B21A70BD4680BC704700BF80B500AF48F24413C1F6FF731B78002B08D1FFF7B5FF48F24413C1F6FF734FF001021A700C
:40084000FFF7D8FF80BD00BF80B483B000AF0346FB7146F28343C4F20003FA791A7007F10C07BD4680BC704780B400AF46F26343C4F200031B78DBB21846BD4680BC704741
:4008800080B483B000AF786046F22043C4F200037A681A6007F10C07BD4680BC704700BF80B400AF46F24043C4F200031B681846BD4680BC704700BF80B483B000AF7860FF
:4008C0004FF4C843C4F200037A681A6007F10C07BD4680BC704700BF80B500AF01E0FFF7DFFFFFF7C1FF034603F00803002BF6D180BD00BF80B500AF4FF0280000F0ECFB2F
:400900004FF0030000F062FA4FF0050000F0E4FB4FF0030000F05AFA4FF00F0000F0DCFB4FF0030000F052FA4FF0010000F0D4FB4FF0020000F04AFA4FF0050000F0CCFB8E
:400940004FF0060000F0C8F84FF00E0000F0C4F84FF02C0000F0C0F84FF0080000F0BCF84FF0010000F0B8F84FF00C0000F0B4F84FF0030000F0B0F84FF0050000F0ACFB0F
:4009800080BD00BF80B500AF4FF00C0000F0A4F848F24513C1F6FF734FF001021A7080BD80B500AF48F24613C1F6FF731B78002B08D1FFF79FFF48F24613C1F6FF734FF0F6
:4009C00001021A70FFF7DEFF80BD00BF80B582B000AF02460B46FA71BB71FB79032B2BD801A252F823F000BFF9090000090A0000190A0000290A0000BB79A3F18003DBB2AE
:400A0000184600F069F818E0BB79A3F14003DBB2184600F061F810E0BB79A3F16C03DBB2184600F059F808E0BB79A3F12C03DBB2184600F051F800E000BF07F10807BD46D1
:400A400080BD00BF80B584B000AF78604FF00103FB737B681B78BB730CE0BB7B184600F01FF8FB7B7A68D3181B78BB73FB7B03F10103FB73BB7B002BEFD107F11007BD469B
:400A800080BD00BF80B582B000AF0346FB71FB79184600F005F807F10807BD4680BD00BF80B584B000AF0346FB7100F031F8FB794FEA1313FB73FB7B184600F02DF9FB7925
:400AC00003F00F03FB73FB7B184600F025F907F11007BD4680BD00BF80B584B000AF0346FB7100F015F8FB794FEA1313FB73FB7B184600F06BF9FB7903F00F03FB73FB7B03
:400B0000184600F063F907F11007BD4680BD00BF80B582B000AF45F22013C4F2000345F22012C4F200021278D2B222F07F02D2B21A7045F22213C4F200031B78DBB223F09C
:400B40000F03FB7145F22213C4F20003FA7942F00F02D2B21A7045F22313C4F200031B78DBB223F00F03FB7145F22313C4F20003FA791A7045F22413C4F200031B78DBB2CD
:400B800023F00F03FB7145F22413C4F20003FA791A7045F22013C4F2000345F22012C4F200021278D2B222F02002D2B21A7045F22013C4F2000345F22012C4F2000212781E
:400BC000D2B242F04002D2B21A704FF0000000F0A7FA45F22013C4F2000345F22012C4F200021278D2B242F01002D2B21A704FF0010000F095FA45F22113C4F200031B7805
:400C0000FB7145F22013C4F2000345F22012C4F200021278D2B222F01002D2B21A704FF0000000F07DFAFB7903F00803FB7145F22013C4F2000345F22012C4F20002127872
:400C4000D2B242F01002D2B21A704FF0010000F067FA45F22013C4F2000345F22012C4F200021278D2B222F01002D2B21A70FB79002BAAD145F22013C4F2000345F22012E3
:400C8000C4F200021278D2B222F04002D2B21A7045F22013C4F2000345F22012C4F200021278D2B222F07F02D2B21A7045F22213C4F2000345F22212C4F200021278D2B2C3
:400CC00022F00F02D2B21A7045F22313C4F200031B78DBB223F00F03FB7145F22313C4F20003FA7942F00F02D2B21A7045F22413C4F200031B78DBB223F00F03FB7145F2F3
:400D00002413C4F20003FA7942F00F02D2B21A7007F10807BD4680BD80B582B000AF0346FB7145F22013C4F2000345F22012C4F200021278D2B242F02002D2B21A7045F202
:400D40002013C4F2000345F22012C4F200021278D2B222F04002D2B21A704FF0000000F0DFF945F22013C4F2000345F22012C4F200021278D2B222F00F02D2B21A7045F235
:400D80002013C4F2000345F22012C4F200021278D1B2FA790A43D2B242F01002D2B21A704FF0010000F0BCF945F22013C4F2000345F22012C4F200021278D2B222F0100228
:400DC000D2B21A7007F10807BD4680BD80B582B000AF0346FB7145F22013C4F2000345F22012C4F200021278D2B222F06002D2B21A7045F22013C4F2000345F22012C4F2BD
:400E000000021278D2B222F00F02D2B21A7045F22013C4F2000345F22012C4F200021278D1B2FA790A43D2B242F01002D2B21A704FF0010000F074F945F22013C4F20003CA
:400E400045F22012C4F200021278D2B222F01002D2B21A7007F10807BD4680BD80B582B000AF0346FB71FB794FEA1313DBB21A4641F2A063C0F200039B5C1846FFF702FE09
:400E8000FB7903F00F0241F2A063C0F200039B5C1846FFF7F7FD07F10807BD4680BD00BF80B582B000AF0346FB80FB884FEA13239BB2DBB21846FFF7D1FFFB88DBB2184652
:400EC000FFF7CCFF07F10807BD4680BD80B582B000AF40F6BF10C0F20E0000F081F840F6BF10C0F20E0000F097F800F0E7F80346FB7146F29753C4F2000346F29752C4F22C
:400F000000021278D2B242F01002D2B21A70FB79184600F0D7F800F09FF84FF0000000F043F807F10807BD4680BD00BF80B400AF46F27453C4F2000346F27452C4F2000276
:400F40001278D2B262F07F02D2B21A70BD4680BC704700BF80B500AF48F24713C1F6FF731B78002B08D1FFF7B1FF48F24713C1F6FF734FF001021A70FFF7D8FF80BD00BF9D
:400F800080B400AF46F27453C4F2000346F27452C4F200021278D2B202F07F02D2B21A70BD4680BC704700BF80B483B000AF0346FB7146F28753C4F20003FA791A7007F111
:400FC0000C07BD4680BC704780B400AF46F26753C4F200031B78DBB21846BD4680BC704780B483B000AF786046F22453C4F200037A681A6007F10C07BD4680BC704700BF74
:4010000080B400AF46F24453C4F200031B681846BD4680BC704700BF80B483B000AF786046F20453C4F200037A681A6007F10C07BD4680BC704700BF80B400AF46F20453EB
:40104000C4F200031B7846F24453C4F200031B681846BD4680BC704780B500AF01E0FFF7CFFFFFF7B1FF034603F00803002BF6D180BD00BF00000000142840F2188002B4A5
:40108000012114381149097811F0C001890904B40F4A515C04BC00BF00BF00BF88417FF5FDAF00BF00BF02BC704700BF00BF70F104007FF5FCAF70470B050709EFF31080B1
:4010C00072B6704780F310887047000000480040B8100000AFF3008080B582B000AF78600BE048F21C13C1F6FF731B681846FFF7C3FF7B68A3F500437B607B68B3F5004F66
:40110000EFD848F21413C1F6FF731B687A6802FB03F31846FFF7B0FF07F10807BD4680BD80B582B000AF0346FB80FA8848F21813C1F6FF731B7803FB02F31846FFF79CFF5D
:4011400007F10807BD4680BD80B500AF00F056F840F28100C0F2000000F01CF84FF0070000F02CF800F03EF880BD00BF80B582B000AF786000F042F8786800F00BF84FF0F7
:40118000070000F01BF800F02DF807F10807BD4680BD00BF80B485B000AF78604EF60853CEF200031B68FB60FB6803F144037A681A6007F11407BD4680BC704780B483B070
:4011C00000AF0346FB714EF20143CEF20003FA794FEA4212D2B21A7007F10C07BD4680BC704700BF80B400AF4FF46143CEF200034FF002021A60BD4680BC704780B400AF53
:401200004EF28013CEF200034FF002021A60BD4680BC704780B400AF4EF28023CEF200034FF002021A60BD4680BC704780B500AF00F056F840F29900C0F2000000F01CF886
:401240004FF0070000F02CF800F03EF880BD00BF80B582B000AF786000F042F8786800F00BF84FF0070000F01BF800F02DF807F10807BD4680BD00BF80B485B000AF7860B3
:401280004EF60853CEF200031B68FB60FB6803F140037A681A6007F11407BD4680BC704780B483B000AF0346FB714FF46443CEF20003FA794FEA4212D2B21A7007F10C075E
:4012C000BD4680BC704700BF80B400AF4FF46143CEF200034FF001021A60BD4680BC704780B400AF4EF28013CEF200034FF001021A60BD4680BC704780B400AF4EF2802309
:40130000CEF200034FF001021A60BD4680BC704738B50E4D0E4B0024E81A8510AC4205D00B4951F8242090470134F7E700F0C0F90849094A541AA5100024AC4205D0054BA7
:4013400053F8240080470134F7E738BDBC160000BC160000BC160000C416000010B50023934203D0CC5CC4540133F9E710BD82180346934202D003F8011BFAE770470000F5
:4013800000000000544D522D31360000305100404000C05100401000F0510040100000000140001000140140000800400140000A004C0140000200500140200002520040A6
:4013C0000164004001650040280001400801014037020140190301400205014001090140010B0140020D014035140140161501402B1601400D17014005180140051901404E
:40140000021B01400340014005410140024201400143014003480140024C0140014D0140045001400151014001020C40830D870D405449FF4AFF4BFF4F0150185A045D0111
:401440005F016040624064406540668068806A806C806E80C054C9FFCAFFCBFFCD83CE03CF01D018D280DA04DB04DD11DF01E040E240E440E540E680E880EA80EC80EE802D
:401480004102450248024C0274027640D081D21813012F013701404549FF4AFF4BFF4D834E034F01501859045A045C105D015F016040624064406540668068806A806C80DA
:4014C0006E8082019201B601BE40C054C5ECC720C823C9FFCAFFCBFFCD83CE03CF01D018D401D804DA04DB04DD11DF01E040E240E440E540E680E880EA80EC80EE8002404D
:401500000902194027022C02360241024640480249054E025102520259459A40A002A502C008C208CA10CC80D081D218D60BEA01B702EA109F049F049F04AB040401060882
:4015400010041228140F1C021E282E1730203208340736103A083E01402549FF4AFF4BFF4F015018528058045A045B045F016040624064406540668068806A806C806E8065
:40158000C065C9FFCAFFCBFFCD83CE03CF01D018DA04DF01E040E240E440E540E680E880EA80EC80EE80000409020A11134018041A511B10400448024C024F2073409404B2
:4015C0009640A002A102A710C004C20DC401D004D238406449FF4AFF4BFF4D834E034F0150185A045F016040624064406540668068806A806C806E80C025C5ECC720C82348
:40160000C9FFCAFFCBFFCD83CE03CF01D018D401DA04DB04DF01E040E240E440E540E680E880EA80EC80EE8040044502480249054F205002510259055A40D084D228D60B09
:40164000E6048801B601BE40D804DF010304180280019F04C002AB04EA0133803780CC305B40A780AB80D480EA80A780B740A7808380A780E6200910C202A91000020802BD
:4016800010011A01000F000000020200020000004000000000000000007F7F000000000030313233343536373839414243444546F8B500BFF8BC08BC9E4670475100000039
:4016C0009D020000F8B500BFF8BC08BC9E4670472D000000E81600000881FF1F18000000280000000000000000000000FFFFFFFF00366E01C05D0000180000000000E02ED6
:4017000000000000000000000000000000000000000000000000000000000000000000000000000000000000000000000000000000000000000000000000000000000000A9
:401740000000000000000000000000000000000000000000000000000000000000000000000000000000000000000000000000000000000000000000000000000000000069
:401780000000000000000000000000000000000000000000000000000000000000000000000000000000000000000000000000000000000000000000000000000000000029
:4017C00000000000000000000000000000000000000000000000000000000000000000000000000000000000000000000000000000000000000000000000000000000000E9
:0200000480007A
:0200000490006A
:0400000000004005B7
:0200000490105A
:04000000BC90ACAF55
:0200000490303A
:02000000DCCD55
:0200000490402A
:4000000000000000000000000000000000000000000000000000000000000000000000000000000000000000000000000000000000000000000000000000000000000000C0
:400040000000000000000000000000000000000000000000000000000000000000000000000000000000000000000000000000000000000000000000000000000000000080
:400080000000000000000000000000000000000000000000000000000000000000000000000000000000000000000000000000000000000000000000000000000000000040
:4000C0000000000000000000000000000000000000000000000000000000000000000000000000000000000000000000000000000000000000000000000000000000000000
:0200000490501A
:0C00000000012E12306900012E1C0D368C
:00000001FF